:400000000080002071040000E1870000E1870000E1870000E1870000E1870000E1870000E1870000E1870000E1870000E1870000E1870000E1870000E1870000E1870000FB
:40004000E1870000E1870000E1870000E1870000E1870000E1870000E1870000E1870000E1870000E1870000E1870000E1870000E1870000E1870000E1870000E187000000
:40008000E1870000E1870000E1870000E1870000E1870000E1870000E1870000E1870000E1870000E1870000E1870000E1870000E1870000E1870000E1870000E1870000C0
:4000C00080B51448144B21E05C689968DD688C420CD0002205E0A6180832D6E9008941E902898C460831AA42F5D101E004EB050C1C696146002204E008320026002741E9DE
:4001000002670831A242F7D1143301380028DBD108F02CFB01000000DC8A000048F23863C1F6FF731A780AB901201870704700BF48F20010C1F6FF7008B503682BB140F27F
:400140000003C0F2000303B1984708BD00000000B0B586B000AF62B600F03CFB01F092F901F030FA01F068FE07F106034FF002004FF000011A4601F09BFE4FF0010001F05B
:40018000BBFA00E000BF48F28863C1F6FF734FF000021A604FF00003FB735FE04FF0000001F092F900F034FB4FF0000000F05EFB00F08CFB024648F2A463C1F6FF731A60EE
:4001C00000F03AFB4FF0010001F07EF900F020FB4FF0000000F04AFB00F078FB024648F28463C1F6FF731A6000F026FB48F2A463C1F6FF731A6848F28463C1F6FF731B687A
:40020000C3EB020248F28C63C1F6FF731A6048F28C63C1F6FF731A6848F2A863C1F6FF731A6048F2A863C1F6FF731A6848F28863C1F6FF731B68C3EB02034FEA231248F268
:400240008863C1F6FF731B681A4448F28863C1F6FF731A60FB7B03F10103FB73FB7B0F2B9CD948F2A463C1F6FF731B689BB2FB804FF001004FF0000101F0BAF948F6480061
:40028000C0F2000001F0EEF9FB88184601F014FC48F2A463C1F6FF731B68184600F034FB0346BB60B86802F0CDFE02460B4648F29060C1F6FF7048F64C01C0F2000103F00D
:4002C000B7FD4FF000004FF0000101F091F948F29060C1F6FF7001F0C5F9B86802F0B2FE02460B46104619465BA3D3E9002302F049FD02460B461046194659A3D3E9002303
:4003000003F01EF802460B46104619464FF000024FF0804303F5381302F0E8FE02460B461046194603F0A4F903463B61386902F089FE02460B4648F29060C1F6FF7048F604
:400340005801C0F2000103F073FD48F29060C1F6FF7001F087F9386902F074FE02460B461046194640A3D3E9002302F0E9FF02460B461046194603F053F903467B753869F7
:4003800002F060FE02460B461046194636A3D3E9002302F0D5FF02460B4614461D467B7D184603F06BFA0346184602F04BFE02460B462046294602F0E5FC02460B4610460B
:4003C00019464FF000024FF0804303F5201302F08DFE02460B461046194603F021F90346BB754FF001004FF0080101F001F948F66400C0F2000001F035F97B7D184601F0B2
:4004000071FB48F66800C0F2000001F02BF9BB7D184601F067FB48F66C00C0F2000001F021F901F027FD0346FB75FB7D03F00103DBB2002B3FF4A6AE02F064F80346002B55
:4004400004D04FF0000002F03DF89CE64FF0010002F038F897E600BF0BB5A679C729CA3F0BB5A679C729EA3F85EB51B81E85DB3F054B1C7844F001041C70044B1A78D2B20E
:40048000034B1A70FFF71CFEE8460040F8460040BC76004080B582B000AF4EF60C53CEF2000340F20042C0F2FA521A604EF61453CEF200034EF61452CEF20002126842F404
:4004C00000721A604FF000037B6014E07A687B684FEA830140F20003C0F200030B441B68194648F20003C1F6FF7343F822107B6803F101037B607B682F2BE7D947F2BC6384
:40050000C4F200031B78DAB248F2AC63C1F6FF731A704EF60853CEF2000348F20002C1F6FF721A6002F0ACFA07F10807BD4680BD80B500AF4FF0010000F010FA4FF010005B
:4005400001F054FB4FF0100001F06CFB4FF0040049F2DB014FF400424FF0100300F04AFE80BD00BF80B500AF48F24463C1F6FF731B78002B0FD048F20C13C1F6FF731B7A8D
:40058000002B08D100F0D0F848F24463C1F6FF734FF000021A7048F20C13C1F6FF734FF000021A7244F2AA33C4F2000344F2AA32C4F200021278D2B242F00102D2B21A7074
:4005C00044F2C533C4F2000344F2C532C4F200021278D2B242F00102D2B21A7044F2BA33C4F2000344F2BA32C4F200021278D2B242F00102D2B21A7048F20413C1F6FF735D
:400600001B78DBB2012B47D144F2F563C4F2000344F2F562C4F200021278D2B242F01002D2B21A7044F2F763C4F2000344F2F762C4F200021278D2B242F00802D2B21A7082
:4006400045F69103C4F2000345F69102C4F200021278D2B242F00302D2B21A704FF0030001F02CFB44F2F563C4F2000344F2F562C4F200021278D2B202F0EF021A7044F282
:40068000F763C4F2000344F2F762C4F200021278D2B202F0F7021A7045F67703C4F2000345F67702C4F200021278D2B242F00602D2B21A7044F2A133C4F2000344F2A13261
:4006C000C4F200021278D2B242F00102D2B21A7044F2B133C4F2000344F2B132C4F200021278D2B242F00102D2B21A7044F2A233C4F2000344F2A232C4F200021278D2B268
:4007000042F00102D2B21A7044F2B233C4F2000344F2B232C4F200021278D2B242F00102D2B21A7080BD00BF80B400AF45F68E03C4F2000348F20C12C1F6FF7212781A7087
:4007400045F68F03C4F2000348F20C12C1F6FF7252781A7045F69003C4F2000348F20C12C1F6FF7292781A7045F69103C4F2000348F20C12C1F6FF72D2781A7045F69203D8
:40078000C4F2000348F20C12C1F6FF7212791A7045F69A03C4F2000348F20C12C1F6FF7252791A7045F69B03C4F2000348F20C12C1F6FF7292791A7045F60733C4F20003B0
:4007C00048F20C12C1F6FF72D2791A70BD4680BC704700BF80B500AF48F23E63C1F6FF731B78002B10D148F23F63C1F6FF731B78DBB2002B01D1FFF79BFE48F23E63C1F625
:40080000FF734FF001021A70FFF7ACFE80BD00BF80B400AF44F60063C4F2000344F60062C4F200021278D2B242F00102D2B21A70BD4680BC704700BF80B400AF44F60063CB
:40084000C4F2000344F60062C4F200021278D2B202F0FE021A7048F23C63C1F6FF734FF001021A70BD4680BC704700BF80B485B000AF0346FB7148F23D63C1F6FF731B78FB
:40088000DBB2012B0CD148F23C63C1F6FF731B78FB73FB7B012B12D0FB79002BF3D00EE044F60163C4F200031B78DBB203F00103FB73FB7B012B02D0FB79002BF0D0FB7BA6
:4008C000184607F11407BD4680BC704780B483B000AF44F61263C4F200031B889BB27B607B684FEA034244F61063C4F200031B889BB242EA03037B607B68184607F10C0738
:40090000BD4680BC704700BF90B585B000AF7860114BFB6048F24063C1F6FF731B687A68C3EB02037B60786802F0ACFF044648F20813C1F6FF731B68184602F0A3FF03464E
:400940002046194603F0A6F80346FB60FB68184607F11407BD4690BD0000000080B582B000AF0346FB7148F23D63C1F6FF734FF000021A7048F23E63C1F6FF731B78002BFE
:4009800068D145F69603C4F200034FF007021A7045F69703C4F200034FF000021A7045F69E03C4F200034FF000021A7045F60733C4F2000345F60732C4F200021278D2B27E
:4009C00042F01802D2B21A7045F69303C4F200034FF000021A7045F68833C4F200034FF000021A7045F68933C4F200034FF000021A7045F68003C4F200034FF00A021A7007
:400A000045F68103C4F200034FF000021A7045F68203C4F200034FF07A021A7045F68303C4F200034FF000021A7045F68D03C4F200034FF000021A7044F60163C4F20003CA
:400A40004FF014021A7044F61463C4F200034FF001021A70FB79012B40F0EF8044F60063C4F200034FF030021A7044F60263C4F200034FF004021A7044F60363C4F2000351
:400A80004FF007021A7044F60463C4F200034FF000021A7044F60563C4F200034FF000021A7044F60663C4F200034FF03F021A7044F60863C4F200034FF000021A7044F650
:400AC0000963C4F200034FF000021A7044F60A63C4F200034FF000021A7045F68403C4F200034FF050021A7045F68503C4F200034FF027021A7045F68603C4F200034FF01B
:400B00002C021A7045F68703C4F200034FF000021A7045F68803C4F200034FF012021A7045F68903C4F200034FF013021A7045F68A03C4F200034FF055021A7045F68B0390
:400B4000C4F200034FF05A021A7045F68C03C4F200034FF005021A7045F68E03C4F200034FF002021A7045F68F03C4F200034FF012021A7045F69003C4F200034FF028029F
:400B80001A7045F69103C4F200036FF014021A704FF0440000F014FC45F69403C4F200034FF058021A7045F69503C4F200034FF000021A7045F69A03C4F200034FF00502C5
:400BC0001A7045F69B03C4F200034FF001021A7045F69C03C4F200034FF000021A7045F69D03C4F200034FF00A021A7045F60733C4F2000345F60732C4F200021278D2B2DE
:400C000042F01802D2B21A7048F20813C1F6FF734FF4FA421A604FF01D004FF0070101F095F84FF01D0041F25541C0F2000101F059F84FF01D0001F0B7F8FB79022B40F0DB
:400C4000EF8044F60063C4F200034FF038021A7044F60263C4F200034FF004021A7044F60363C4F200034FF007021A7044F60463C4F200034FF000021A7044F60563C4F2DD
:400C800000034FF000021A7044F60663C4F200034FF03F021A7044F60863C4F200034FF000021A7044F60963C4F200034FF000021A7044F60A63C4F200034FF000021A7082
:400CC00045F68403C4F200034FF050021A7045F68503C4F200034FF027021A7045F68603C4F200034FF02C021A7045F68703C4F200034FF000021A7045F68803C4F20003B4
:400D00004FF012021A7045F68903C4F200034FF013021A7045F68A03C4F200034FF055021A7045F68B03C4F200034FF05A021A7045F68C03C4F200034FF005021A7045F6A2
:400D40008E03C4F200034FF001021A7045F68F03C4F200034FF011021A7045F69003C4F200034FF019021A7045F69103C4F200036FF068021A704FF0440000F021FB45F6EB
:400D80009403C4F200034FF058021A7045F69503C4F200034FF000021A7045F69A03C4F200034FF005021A7045F69B03C4F200034FF001021A7045F69C03C4F200034FF0D8
:400DC00001021A7045F69D03C4F200034FF00A021A7045F60733C4F2000345F60732C4F200021278D2B242F01802D2B21A7048F20813C1F6FF734FF4FA421A604FF01D0068
:400E00004FF0070100F0A2FF4FF01D0041F26141C0F2000100F066FF4FF01D0000F0C4FFFB79032B40F0EF8044F60063C4F200034FF038021A7044F60263C4F200034FF061
:400E400004021A7044F60363C4F200034FF007021A7044F60463C4F200034FF000021A7044F60563C4F200034FF000021A7044F60663C4F200034FF03F021A7044F6086361
:400E8000C4F200034FF000021A7044F60963C4F200034FF000021A7044F60A63C4F200034FF000021A7045F68403C4F200034FF050021A7045F68503C4F200034FF02702DF
:400EC0001A7045F68603C4F200034FF02C021A7045F68703C4F200034FF000021A7045F68803C4F200034FF012021A7045F68903C4F200034FF013021A7045F68A03C4F273
:400F000000034FF055021A7045F68B03C4F200034FF05A021A7045F68C03C4F200034FF005021A7045F68E03C4F200034FF001021A7045F68F03C4F200034FF011021A70E1
:400F400045F69003C4F200034FF019021A7045F69103C4F200036FF068021A704FF0440000F02EFA45F69403C4F200034FF058021A7045F69503C4F200034FF000021A708B
:400F800045F69A03C4F200034FF005021A7045F69B03C4F200034FF001021A7045F69C03C4F200034FF001021A7045F69D03C4F200034FF00A021A7045F60733C4F200037C
:400FC00045F60732C4F200021278D2B242F01802D2B21A7048F20813C1F6FF734FF4FA421A604FF01D004FF0070100F0AFFE4FF01D0041F26D41C0F2000100F073FE4FF016
:401000001D0000F0D1FEFB79042B40F0EF8044F60063C4F200034FF038021A7044F60263C4F200034FF004021A7044F60363C4F200034FF007021A7044F60463C4F200038D
:401040004FF000021A7044F60563C4F200034FF000021A7044F60663C4F200034FF03F021A7044F60863C4F200034FF000021A7044F60963C4F200034FF000021A7044F68C
:401080000A63C4F200034FF000021A7045F68403C4F200034FF050021A7045F68503C4F200034FF027021A7045F68603C4F200034FF02C021A7045F68703C4F200034FF00A
:4010C00000021A7045F68803C4F200034FF012021A7045F68903C4F200034FF013021A7045F68A03C4F200034FF055021A7045F68B03C4F200034FF05A021A7045F68C0398
:40110000C4F200034FF005021A7045F68E03C4F200034FF001021A7045F68F03C4F200034FF011021A7045F69003C4F200034FF019021A7045F69103C4F200036FF06802B7
:401140001A704FF0440000F03BF945F69403C4F200034FF058021A7045F69503C4F200034FF000021A7045F69A03C4F200034FF005021A7045F69B03C4F200034FF0010204
:401180001A7045F69C03C4F200034FF001021A7045F69D03C4F200034FF00A021A7045F60733C4F2000345F60732C4F200021278D2B242F01802D2B21A7048F20813C1F60F
:4011C000FF734FF4FA421A604FF01D004FF0070100F0BCFD4FF01D0041F27941C0F2000100F080FD4FF01D0000F0DEFD07F10807BD4680BD80B487B000AFF871B9807A80AB
:401200007B70FB79A3F10403062B5DD801A252F823F000BF31120000C9120000C9120000571200007D120000C9120000A31200007B780F2B07D940F21413C4F600131B7848
:40124000DBB2FB7343E040F21813C4F600131B78DBB2FB733BE07B780F2B07D940F21513C4F600131B78DBB2FB7330E040F21913C4F600131B78DBB2FB7328E07B780F2BBD
:4012800007D940F21613C4F600131B78DBB2FB731DE040F21A13C4F600131B78DBB2FB7315E07B780F2B07D940F21713C4F600131B78DBB2FB730AE040F21B13C4F6001311
:4012C0001B78DBB2FB7302E04FF00003FB73FB79002B11D0FB79012B0ED0FB79022B0BD0FB79032B08D0FB79052B05D0FB79062B02D0FB79092B03D14FF000033B8206E089
:4013000097F90F309BB24FEA43139BB23B823A8ABB8813447B827B8A7A8802FB03F37B617B694FEAD3337B827B780D2B12D87A8A7B786FEA030303F10F0342FA03F37B8207
:4013400044F60E63C4F200037A7802F10102D2B21A7006E044F60E63C4F200034FF00F021A7044F60C63C4F200037A8AD2B21A7044F60D63C4F200037A8A4FEA122292B263
:40138000D2B21A70FB79012B14D144F60C63C4F200034FF000021A7044F60D63C4F200034FF000021A7044F60E63C4F200034FF000021A7007F11C07BD4680BC704700BF40
:4013C00080B582B000AF0346FB7144F2F563C4F2000344F2F562C4F200021278D2B242F01002D2B21A7044F2F763C4F2000344F2F762C4F200021278D2B242F00802D2B2D8
:401400001A7045F69203C4F20003FA791A704FF0030000F053FC44F2F563C4F2000344F2F562C4F200021278D2B202F0EF021A7044F2F763C4F2000344F2F762C4F2000284
:401440001278D2B202F0F7021A7007F10807BD4680BD00BF80B400AFBD4680BC704700BF80B400AFBD4680BC704700BF80B400AFBD4680BC704700BF80B400AFBD4680BCF9
:40148000704700BF80B582B000AF4FF00003FB710BE0FB79184601F049FAFB79184601F0C1FAFB7903F10103FB71FB79012BF0D948F21813C1F6FF734FF0FF321A7007F1C2
:4014C0000807BD4680BD00BF80B582B000AF0346FB71FFF7D7FFFB79184600F00BF848F21813C1F6FF73FA791A7007F10807BD4680BD00BF80B582B000AF0346FB71FB79B2
:40150000184601F0C9F9FB79184601F063FA07F10807BD4680BD00BF80B500AF4FF0280000F0A8FB4FF0030000F05EFA4FF0050000F0A0FB4FF0030000F056FA4FF00F006D
:4015400000F098FB4FF0030000F04EFA4FF0010000F090FB4FF0020000F046FA4FF0050000F088FB4FF0060000F0C6F84FF00E0000F0C2F84FF02C0000F0BEF84FF0080049
:4015800000F0BAF84FF0010000F0B6F84FF00C0000F0B2F84FF0030000F0AEF84FF0050000F068FB80BD00BF80B500AF4FF00C0000F0A2F848F24863C1F6FF734FF0010252
:4015C0001A7080BD80B500AF48F24963C1F6FF731B78002B08D1FFF79FFF48F24963C1F6FF734FF001021A70FFF7DEFF80BD00BF80B582B000AF02460B46FA71BB71FB79A2
:40160000032B2AD801A252F823F000BF1D1600002D1600003D1600004D160000BB79A3F18003DBB2184600F067F816E0BB79A3F14003DBB2184600F05FF80EE0BB79A3F121
:401640006C03DBB2184600F057F806E0BB79A3F12C03DBB2184600F04FF807F10807BD4680BD00BF80B584B000AF78604FF00103BB737B681B78FB730CE0FB7B184600F0D7
:401680001FF8BA7B7B6813441B78FB73BB7B03F10103BB73FB7B002BEFD107F11007BD4680BD00BF80B582B000AF0346FB71FB79184600F005F807F10807BD4680BD00BF48
:4016C00080B584B000AF0346FB7100F035F8FB794FEA1313FB73FB7B184600F02FF9FB7903F00F03FB73FB7B184600F027F907F11007BD4680BD00BF80B584B000AF034699
:40170000FB71FB794FEA1313FB7300F015F8FB7B03F00F03FB73FB7B184600F065F9FB7903F00F03FB73FB7B184600F05DF907F11007BD4680BD00BF80B582B000AF4FF090
:401740000003FB7145F22013C4F2000345F22012C4F200021278D2B202F080021A7045F22213C4F200031B78DBB223F00F03FB7145F22213C4F20003FA7942F00F02D2B275
:401780001A7045F22313C4F200031B78DBB223F00F03FB7145F22313C4F20003FA791A7045F22413C4F200031B78DBB223F00F03FB7145F22413C4F20003FA791A7045F272
:4017C0002013C4F2000345F22012C4F200021278D2B202F0DF021A7045F22013C4F2000345F22012C4F200021278D2B242F04002D2B21A704FF0000000F060FA45F22013AA
:40180000C4F2000345F22012C4F200021278D2B242F01002D2B21A704FF0010000F04EFA45F22113C4F200031B78FB7145F22013C4F2000345F22012C4F200021278D2B281
:4018400002F0EF021A704FF0000000F037FAFB7903F00803FB7145F22013C4F2000345F22012C4F200021278D2B242F01002D2B21A704FF0010000F021FA45F22013C4F2AE
:40188000000345F22012C4F200021278D2B202F0EF021A70FB79002BACD145F22013C4F2000345F22012C4F200021278D2B202F0BF021A7045F22013C4F2000345F2201252
:4018C000C4F200021278D2B202F080021A7045F22213C4F200031B78DBB223F00F03FB7145F22213C4F20003FA791A7045F22313C4F200031B78DBB223F00F03FB7145F21E
:401900002313C4F20003FA7942F00F02D2B21A7045F22413C4F200031B78DBB223F00F03FB7145F22413C4F20003FA7942F00F02D2B21A7007F10807BD4680BD80B582B083
:4019400000AF0346FB71FFF7F7FE45F22013C4F2000345F22012C4F200021278D2B242F02002D2B21A7045F22013C4F2000345F22012C4F200021278D2B202F0BF021A70D5
:4019800045F22013C4F2000345F22012C4F200021278D2B202F0F0021A7045F22013C4F2000345F22012C4F200021278D1B2FA7941EA0202D2B242F01002D2B21A704FF05F
:4019C000010000F07BF945F22013C4F2000345F22012C4F200021278D2B202F0EF021A7007F10807BD4680BD80B582B000AF0346FB7145F22013C4F2000345F22012C4F26F
:401A000000021278D2B202F09F021A7045F22013C4F2000345F22012C4F200021278D2B202F0F0021A7045F22013C4F2000345F22012C4F200021278D1B2FA7941EA0202C6
:401A4000D2B242F01002D2B21A704FF0010000F035F945F22013C4F2000345F22012C4F200021278D2B202F0EF021A7007F10807BD4680BD80B582B000AF0346FB71FB79ED
:401A80004FEA1313DBB21A4648F67403C0F200039B5C1846FFF706FEFB7903F00F0248F67403C0F200039B5C1846FFF7FBFD07F10807BD4680BD00BF80B582B000AF034697
:401AC000FB80FB884FEA13239BB2DBB21846FFF7D1FFFB88DBB21846FFF7CCFF07F10807BD4680BD80B586B000AF0346FB804FF00003BB754FF00003FB752AE0B87DFA8842
:401B00004CF6CD43CCF6CC43A3FB02134FEAD3010B464FEA83030B444FEA4303C3EB02039BB2DBB203F13003DAB207F1180101EB000303F8102CFA884CF6CD43CCF6CC43C8
:401B4000A3FB02134FEAD303FB80BB7D03F10103BB75FB88092BD1D8B87DFA884CF6CD43CCF6CC43A3FB02134FEAD3010B464FEA83030B444FEA4303C3EB02039BB2DBB263
:401B800003F13003DAB207F1180101EB000303F8102CBB7DFB7512E0FA7DBB7DC3EB0203BA7D07F118010A4412F8102C07F118010B4403F8082CBB7D03F1FF33BB75BB7D0E
:401BC000FF2BE9D1FB7D03F1010307F1180213444FF0000203F8082C07F110031846FFF741FD07F11807BD4680BD00BF80B483B000AF0346FB7144F20213C4F2000344F200
:401C00000212C4F200021278D1B2FA7902F0F80241EA0202D2B21A7007F10C07BD4680BC704700BF80B483B000AF0346FB7144F28203C4F2000344F28202C4F20002127834
:401C4000D1B2FA7902F0F80241EA0202D2B21A7007F10C07BD4680BC704700BF80B483B000AF0346FB7101BE07F10C07BD4680BC704700BF80B582B000AF78600BE048F228
:401C80002813C1F6FF731B68184601F041F87B68A3F500437B607B68B3F5004FEFD848F22013C1F6FF731B687A6802FB03F3184601F02EF807F10807BD4680BD80B582B06A
:401CC00000AF0346FB80FA8848F22413C1F6FF731B7803FB02F3184601F01AF807F10807BD4680BD80B584B000AF03463960FB714EF60853CEF200031B68FB60FB791F2BC3
:401D000007D9FB791F2B8CBF002301231846FFF7A5FFFB7903F01F0303F110034FEA8302FB6813441B68BB60FB7903F01F0303F110034FEA8302FB6813443A681A60BB688E
:401D4000184607F11007BD4680BD00BF80B582B000AF02460B46FA71BB71BB79072B07D9BB79072B8CBF002301231846FFF776FFFB791F2B07D9FB791F2B8CBF00230123BC
:401D80001846FFF76BFFFB7903F01F0303F1604303F56443BA794FEA4212D2B21A7007F10807BD4680BD00BF80B584B000AF0346FB71FB791F2B07D9FB791F2B8CBF00233B
:401DC00001231846FFF74AFF4EF20013CEF20003FB60FB7903F01F034FF0010202FA03F31A46FB681A6007F11007BD4680BD00BF80B584B000AF0346FB71FB791F2B07D93E
:401E0000FB791F2B8CBF002301231846FFF726FF4EF28023CEF20003FB60FB7903F01F034FF0010202FA03F31A46FB681A6007F11007BD4680BD00BF80B500AF48F24A6305
:401E4000C1F6FF731B78002B08D100F061F848F24A63C1F6FF734FF001021A7000F0ECF880BD00BF80B500AF4FF00000FFF79CFF80BD00BF80B483B000AF48F2B863C1F6DB
:401E8000FF731B78FB7148F2B863C1F6FF731B78DBB21A4602F0100248F2B863C1F6FF731A70FB79184607F10C07BD4680BC704780B483B000AF0B463A600246FA80BB80D6
:401EC0003A6848F2B463C1F6FF731A6048F2B063C1F6FF734FF000021A7048F2B963C1F6FF734FF000021A70FB88DAB248F2B363C1F6FF731A70BB88DAB248F2B163C1F6DB
:401F0000FF731A7007F10C07BD4680BC704700BF80B483B000AF44F6D713C4F200034FF000021A7044F6D613C4F2000344F6D612C4F200021278D2B242F00102D2B21A7020
:401F400044F6DB13C4F200034FF004021A704FF00003FB7111E0FB794FF0010202FA03F30E2B06D944F6DB13C4F20003FA791A7006E0FB7903F10103FB71FB79062BEAD94E
:401F800044F6D613C4F2000344F6D612C4F200021278D2B242F00402D2B21A7044F6CA13C4F200034FF008021A7044F6C813C4F2000344F6C812C4F200021278D2B242F09A
:401FC0000102D2B21A7048F2B463C1F6FF734FF000021A6048F2B063C1F6FF734FF000021A7048F2B963C1F6FF734FF000021A7048F2B163C1F6FF734FF000021A7048F294
:40200000B363C1F6FF734FF000021A7044F6C813C4F2000344F6C812C4F200021278D2B26FEA42626FEA5262D2B21A7007F10C07BD4680BC704700BF80B582B000AF00F010
:402040006FFE0346FB7144F2A533C4F2000344F2A532C4F200021278D2B242F00402D2B21A7044F2B533C4F2000344F2B532C4F200021278D2B242F00402D2B21A70FB79EA
:40208000184600F051FE4FF000004FF00701FFF75DFE4FF0000042F2D501C0F20001FFF721FE4FF00000FFF7A3FE48F2B263C1F6FF734FF000021A7048F2B863C1F6FF7304
:4020C0004FF000021A70FFF7CDFE07F10807BD4680BD00BF80B400AF44F6D713C4F200031B78DAB248F24B63C1F6FF731A7048F24B63C1F6FF731B7803F00803002B7ED0B9
:4021000044F6D813C4F200031B78DBB203F00103DBB2002B48D044F6D813C4F2000348F2B462C1F6FF72116848F2B062C1F6FF721278D2B20A441278D2B21A7044F6D7137F
:40214000C4F200034FF014021A7048F2B063C1F6FF731B78DAB248F2B963C1F6FF731A7048F2B963C1F6FF731B78DBB203F10103DAB248F2B963C1F6FF731A7048F2B863A8
:40218000C1F6FF731B78DBB243F01103DAB248F2B863C1F6FF731A7048F2B263C1F6FF734FF008021A705EE144F6D713C4F200034FF010021A7048F2B863C1F6FF731B78A8
:4021C000DBB243F01203DAB248F2B863C1F6FF731A7048F2B263C1F6FF734FF001021A7044F6D613C4F2000344F6D612C4F200021278D2B242F01002D2B21A7033E148F2CE
:402200004B63C1F6FF731B7803F00103DBB2002B00F0298148F2B263C1F6FF731B78DBB2042B48D0082B00F08F80012B40F0FF8044F6D813C4F200031B78DAB248F24C6319
:40224000C1F6FF731A7048F24C63C1F6FF731A7848F2B363C1F6FF731B78DBB29A4222D244F6D713C4F200034FF010021A7048F24C63C1F6FF731A7848F2B063C1F6FF73CC
:402280001A7048F24C63C1F6FF731A7848F2B963C1F6FF731A7048F2B263C1F6FF734FF004021A70DFE044F6D713C4F200034FF000021A70D7E048F2B963C1F6FF731B7870
:4022C000DAB248F2B163C1F6FF731B78DBB29A4232D244F6D813C4F200031B78DAB248F24C63C1F6FF731A7044F6D713C4F200034FF010021A7048F2B463C1F6FF731A688E
:4023000048F2B963C1F6FF731B78DBB21A4448F24C63C1F6FF731B78137048F2B963C1F6FF731B78DBB203F10103DAB248F2B963C1F6FF731A7096E044F6D713C4F20003F9
:402340004FF000021A708EE048F2B963C1F6FF731B78DAB248F2B363C1F6FF731B78DBB29A4255D248F24B63C1F6FF731B7803F00203002B28D144F6D813C4F2000348F212
:40238000B462C1F6FF72116848F2B962C1F6FF721278D2B20A441278D2B21A7044F6D713C4F200034FF004021A7048F2B963C1F6FF731B78DBB203F10103DAB248F2B963D0
:4023C000C1F6FF731A704EE044F6D813C4F200034FF0FF321A7044F6D713C4F200034FF000021A7048F2B863C1F6FF731B78DBB21A4602F0EF0248F2B863C1F6FF731A7093
:4024000048F2B263C1F6FF734FF000021A702AE044F6D813C4F200034FF0FF321A7044F6D713C4F200034FF004021A701BE048F2B263C1F6FF734FF000021A7048F2B06340
:40244000C1F6FF734FF000021A7048F2B963C1F6FF734FF000021A7044F6D713C4F200034FF000021A7044F6D713C4F200031B78DBB203F02003002B21D048F2B863C1F63B
:40248000FF731B78DBB21A4602F0EF0248F2B863C1F6FF731A7048F2B263C1F6FF734FF000021A7044F6D613C4F2000344F6D612C4F200021278D2B202F0EF021A70BD46C8
:4024C00080BC704780B485B000AF0346FB7145F21013C4F200031B78DBB203F07F03FB7345F21013C4F20003FA794FEAC212D1B2FA7B41EA0202D2B21A7007F11407BD4628
:4025000080BC704780B400AF45F21013C4F200031B78DBB24FEAD313DBB21846BD4680BC704700BF80B485B000AF786039607B68FB6007E0FB684FF000021A70FB6803F1A0
:402540000103FB603B68002B0CBF00230123DBB23A6802F1FF323A60002BEBD107F11407BD4680BC704700BF80B487B000AFF860B9607A60FB683B61BB687B610BE07B694E
:402580001A783B691A703B6903F101033B617B6903F101037B617B68002B0CBF00230123DBB27A6802F1FF327A60002BE7D107F11C07BD4680BC704780B485B000AF4FF093
:4025C00000037B604FF000033B6036E03B684FEA830303F190431B68BB60BB68FB73BB6823F0FF03BB6018E07B684FEA430303F1904303F15C031B781A46BB6813441A461E
:402600007B684FEA430303F1904303F15C035B7813707B6803F101037B60FB7B002B0CBF00230123DBB2FA7B02F1FF32FA73002BDAD13B6803F101033B603B68162BC5D93E
:4026400007F11407BD4680BC704700BF80B584B000AF07F10803FB6044F28000C4F2000040F20101C0F2180100F062FB44F20010C4F2000040F21C11C4F600014FF0040209
:4026800001F0A4FA44F20033C4F200034FF002021A7044F20003C4F200034FF008021A7044F20023C4F200034FF003021A7044F2A163C4F2000340F20812C4F60012127862
:4026C000D2B21A7044F22223C4F200034FF008021A8044F22023C4F2000341F251021A804FF00003FB714FF01903BB601AE0FB79DBB24FEA4303DAB244F22523C4F2000302
:402700001B78DBB203F0010342EA0303DBB203F00303FB714FF0780000F0FAFABB6803F1FF33BB60FB681B68002B03D0FB79DBB2032BDCD144F20403C4F200034FF0030265
:402740001A7044F20503C4F200034FF001021A7044F20403C4F200034FF000021A7044F20403C4F200034FF007021A7044F20603C4F200034FF000021A7044F20803C4F2C9
:4027800000034FF048021A7044F20403C4F200034FF000021A7044F20103C4F200034FF002021A7044F20B03C4F200034FF004021A7044F2A233C4F2000344F2A232C4F232
:4027C00000021278D2B242F00102D2B21A7044F2A133C4F2000344F2A132C4F200021278D2B242F00102D2B21A7007F11007BD4680BD00BF80B400AF44F2AA33C4F20003F4
:402800004FF444721A8045F20D13C4F200034FF002021A7045F62003C4F200034FF01E021A7045F62403C4F200034FF01E021A7045F62803C4F200034FF01E021A7045F6E1
:402840002C03C4F200034FF01E021A7045F60013C4F200036FF03F021A7045F60313C4F200034FF00C021A7045F60813C4F200036FF03F021A7045F60B13C4F200034FF0EB
:402880000C021A7045F67603C4F200034FF044021A70BD4680BC704780B483B000AF0346FB71FB79012B3AD8FA79FB791344FB71FA7948F6B003C0F2000353F82220F979CF
:4028C00048F6B003C0F2000353F821301978F87948F6C003C0F200031B5C41EA0303DBB21370FB7903F10103FB71FA7948F6B003C0F2000353F82220F97948F6B003C0F293
:40290000000353F821301978F87948F6C003C0F200031B5C41EA0303DBB2137000E000BF07F10C07BD4680BC704700BF80B483B000AF0346FB71FB79012B44D8FA79FB79BB
:402940001344FB71FA7948F6B003C0F2000353F82220F97948F6B003C0F2000353F821301B781946F87948F6C003C0F200031B5C6FEA0303DBB201EA0303DBB2DBB2137030
:40298000FB7903F10103FB71FA7948F6B003C0F2000353F82220F97948F6B003C0F2000353F821301B781946F87948F6C003C0F200031B5C6FEA0303DBB201EA0303DBB2EB
:4029C000DBB2137000E000BF07F10C07BD4680BC704700BF80B483B000AF0346FB71FB79012B19D8FA7948F6C403C0F2000353F82220F97948F6C403C0F2000353F821308A
:402A00001978F87948F6CC03C0F200031B5C41EA0303DBB2137000E000BF07F10C07BD4680BC704780B483B000AF0346FB71FB79012B1ED8FA7948F6C403C0F2000353F8A1
:402A40002220F97948F6C403C0F2000353F821301B781946F87948F6CC03C0F200031B5C6FEA0303DBB201EA0303DBB2DBB2137000E000BF07F10C07BD4680BC704700BFD7
:402A800080B582B000AF72B644F60003C4F200034FF000021A70FFF7D9FD44F60003C4F200036FF07F021A7047F21003C4F200034FF000021A7047F22003C4F200034FF0C7
:402AC00000021A7045F67C03C4F200034FF001021A7044F2E863C4F2000344F2E862C4F200021278D2B242F00102D2B21A704FF00003FB7031E0FA7813464FEA43031344E9
:402B00004FEA43031A4648F68403C0F2000313447B607B681A7859784FEA012141EA020299784FEA014141EA0202DB784FEA036343EA02031A467B6819795B794FEA032353
:402B400043EA01039BB210464FF000011A4601F005F9FB7803F10103FB70FB78062BCAD9FFF72AFD45F20020C4F200004FF00701FFF7D8FC45F20820C4F200004FF007013E
:402B8000FFF7D0FC45F21020C4F200004FF00701FFF7C8FC45F21820C4F200004FF00701FFF7C0FC45F22020C4F200004FF00701FFF7B8FC45F22820C4F200004FF007017D
:402BC000FFF7B0FC45F23020C4F200004FF00701FFF7A8FC45F26020C4F2000040F21411C4F600014FF00602FFF7BEFC45F27820C4F200004FF00701FFF794FC45F2030310
:402C0000C4F2010345F20302C4F201021278D2B242F00202D2B21A7045F21303C4F2010345F21302C4F201021278D2B242F00202D2B21A7044F2A033C4F2000344F2A0326B
:402C4000C4F200021278D2B242F04002D2B21A7044F2C233C4F2000344F2C232C4F200021278D2B242F01002D2B21A7045F20210C4F2000040F2F001C4F600014FF00802C0
:402C800000F0A4FF45F21210C4F2000040F2F801C4F600014FF0080200F098FF45F2C010C4F2000040F20011C4F600014FF00A02FFF75AFC45F22210C4F2000040F20C11FC
:402CC000C4F600014FF0080200F080FFFFF792FD44F2B030C4F2000044F2A031C4F200014FF00C0200F072FF44F2B033C4F2000344F2B032C4F200021278D2B202F0FD0203
:402D00001A7007F10807BD4680BD00BF000000000230800803D000BF01380046FCD17047EFF3108072B6704780F31088704700BF80B483B000AF786039603B68DAB27B6849
:402D40001A707B6803F101037B603B684FEA13233B603B68DAB27B681A707B6803F101037B603B684FEA13233B603B68DAB27B681A7007F10C07BD4680BC704781F0004118
:402D800002E000BF83F0004330B54FEA41044FEA430594EA050F08BF90EA020F1FBF54EA000C55EA020C7FEA645C7FEA655C00F0E2804FEA5454D4EB5555B8BF6D420CDD81
:402DC0002C4480EA020281EA030382EA000083EA010180EA020281EA0303362D88BF30BD11F0004F4FEA01314FF4801C4CEA113102D0404261EB410113F0004F4FEA03337E
:402E00004CEA133302D0524263EB430394EA050F00F0A780A4F10104D5F1200E0DDB02FA0EFC22FA05F2801841F1000103FA0EF2801843FA05F359410EE0A5F120050EF10D
:402E4000200E012A03FA0EFC28BF4CF0020C43FA05F3C01851EBE37101F0004507D54FF0000EDCF1000C7EEB00006EEB0101B1F5801F1BD3B1F5001F0CD349085FEA300087
:402E80004FEA3C0C04F101044FEA445212F5800F80F09A80BCF1004F08BF5FEA500C50F1000041EB045141EA050130BD5FEA4C0C404141EB010111F4801FA4F10104E9D118
:402EC00091F0000F04BF01460020B1FA81F308BF2033A3F10B03B3F120020CDA0C3208DD02F1140CC2F10C0201FA0CF021FA02F10CE002F11402D8BFC2F1200C01FA02F13C
:402F000020FA0CFCDCBF41EA0C019040E41AA2BF01EB0451294330BD6FEA04041F3C1CDA0C340EDC04F11404C4F1200220FA04F001FA02F340EA030021FA04F345EA0301A3
:402F400030BDC4F10C04C4F1200220FA02F001FA04F340EA0300294630BD21FA04F0294630BD94F0000F83F4801306BF81F480110134013D4EE77FEA645C18BF7FEA655C9C
:402F800029D094EA050F08BF90EA020F05D054EA000C04BF1946104630BD91EA030F1EBF0021002030BD5FEA545C05D14000494128BF41F0004130BD14F580043CBF01F5BB
:402FC000801130BD01F0004545F0FE4141F470014FF0000030BD7FEA645C1ABF194610467FEA655C1CBF0B46024650EA013406BF52EA033591EA030F41F4002130BD00BF4B
:4030000090F0000F04BF0021704730B54FF4806404F132044FF000054FF0000150E700BF90F0000F04BF0021704730B54FF4806404F1320410F0004548BF40424FF0000146
:403040003EE700BF42004FEAE2014FEA31014FEA02701FBF12F07F4393F07F4F81F06051704792F0000F14BF93F07F4F704730B54FF4607401F0004521F0004120E700BF76
:4030800050EA010208BF704730B54FF000050AE050EA010208BF704730B511F0004502D5404261EB41014FF4806404F132045FEA915C3FF4DCAE4FF003025FEADC0C18BFE4
:4030C00003325FEADC0C18BF033202EBDC02C2F1200300FA03FC20FA02F001FA03FE40EA0E0021FA02F11444C1E600BF70B54FF0FF0C4CF4E06C1CEA11541DBF1CEA135508
:4031000094EA0C0F95EA0C0F00F0DEF82C4481EA030621EA4C5123EA4C5350EA013518BF52EA033541F4801143F4801338D0A0FB02CE4FF00005E1FB02E506F00042E0FB86
:4031400003E54FF00006E1FB03569CF0000F18BF4EF0010EA4F1FF04B6F5007F64F5407404D25FEA4E0E6D4146EB060642EAC62141EA55514FEAC52040EA5E504FEACE2EEA
:40318000B4F1FD0C88BFBCF5E06F1ED8BEF1004F08BF5FEA500E50F1000041EB045170BD06F0004646EA010140EA020081EA0301B4EB5C04C2BFD4EB0C0541EA045170BDC3
:4031C00041F480114FF0000E013C00F3AB8014F1360FDEBF002001F0004170BDC4F10004203C35DA0C341BDC04F11404C4F1200500FA05F320FA04F001FA05F240EA02009B
:4032000001F0004221F0004110EBD37021FA04F642EB06015EEA430E08BF20EAD37070BDC4F10C04C4F1200500FA04F320FA05F001FA04F240EA020001F0004110EBD3707C
:4032400041F100015EEA430E08BF20EAD37070BDC4F1200500FA05F24EEA020E20FA04F301FA05F243EA020321FA04F001F0004121FA04F220EA020000EBD3705EEA430ED4
:4032800008BF20EAD37070BD94F0000F0FD101F00046400041EB010111F4801F08BF013CF7D041EA060195F0000F18BF704703F00046520043EB030313F4801F08BF013D88
:4032C000F7D043EA0603704794EA0C0F0CEA135518BF95EA0C0F0CD050EA410618BF52EA4306D1D181EA030101F000414FF0000070BD50EA410606BF1046194652EA4306CA
:4033000019D094EA0C0F02D150EA013613D195EA0C0F05D152EA03361CBF104619460AD181EA030101F0004141F0FE4141F470014FF0000070BD41F0FE4141F4780170BD25
:4033400070B54FF0FF0C4CF4E06C1CEA11541DBF1CEA135594EA0C0F95EA0C0F00F0A7F8A4EB050481EA030E52EA03354FEA013100F088804FEA03334FF0805545EA131318
:4033800043EA12634FEA022245EA111545EA10654FEA00260EF000419D4208BF964244F1FD0404F5407402D25B084FEA3202B61A65EB03055B084FEA32024FF480104FF464
:4033C000002CB6EB020E75EB030E22BFB61A754640EA0C005B084FEA3202B6EB020E75EB030E22BFB61A754640EA5C005B084FEA3202B6EB020E75EB030E22BFB61A75469B
:4034000040EA9C005B084FEA3202B6EB020E75EB030E22BFB61A754640EADC0055EA060E18D04FEA051545EA16754FEA06164FEAC30343EA52734FEAC2025FEA1C1CC0D1C5
:4034400011F4801F0BD141EA00014FF000004FF0004CB6E711F4801F04BF01430020B4F1FD0C88BFBCF5E06F3FF6AFAEB5EB030C04BFB6EB020C5FEA500C50F1000041EBB4
:40348000045170BD0EF0004E4EEA113114EB5C04C2BFD4EB0C0541EA045170BD41F480114FF0000E013C90E645EA060E8DE60CEA135594EA0C0F08BF95EA0C0F3FF43BAF76
:4034C00094EA0C0F0AD150EA01347FF434AF95EA0C0F7FF425AF104619462CE795EA0C0F06D152EA03353FF4FDAE1046194622E750EA410618BF52EA43067FF4C5AE50EA6C
:4035000041047FF40DAF52EA43057FF4EBAE12E74FF0FF3C06E000BF4FF0010C02E000BF4FF0010C4DF804CD4FEA410C7FEA6C5C4FEA430C18BF7FEA6C5C1BD001B050EA03
:40354000410C0CBF52EA430C91EA030F02BF90EA020F0020704710F1000F91EA030F58BF994208BF90422CBFD8176FEAE37040F0010070474FEA410C7FEA6C5C02D150EA9E
:40358000013C07D14FEA430C7FEA6C5CD6D152EA033CD3D05DF8040B704700BF8446104662468C461946634600E000BF01B5FFF7B7FF002848BF10F1000F01BD4DF808EDC4
:4035C000FFF7F4FF0CBF012000205DF808FB00BF4DF808EDFFF7EAFF34BF012000205DF808FB00BF4DF808EDFFF7E0FF94BF012000205DF808FB00BF4DF808EDFFF7CEFFA4
:4036000094BF012000205DF808FB00BF4DF808EDFFF7C4FF34BF012000205DF808FB00BF4FEA410212F5001215D211D56FF47873B3EB625212D94FEAC12343F0004343EAF4
:40364000505311F0004F23FA02F018BF404270474FF00000704750EA013005D111F0004008BF6FF0004070474FF00000704700BF4FEA4102B2F1E04324BFB3F5001CDCF138
:40368000FE5C0DD901F0004C4FEAC0024CEA5070B2F1004F40EB830008BF20F00100704711F0804F21D113F13872BCBF01F00040704741F480114FEA5252C2F11802C2F177
:4036C000200C10FA0CF320FA02F018BF40F001004FEAC1234FEAD32303FA0CFC40EA0C0023FA02F34FEA4303CCE77FEA625307D150EA01331EBF4FF0FE4040F440007047CD
:4037000001F0004040F0FE4040F40000704700BF80F0004002E000BF81F0004142001FBF5FEA410392EA030F7FEA226C7FEA236C6AD04FEA1262D2EB1363C1BFD21841400E
:4037400048404140B8BF5B42192B88BF704710F0004F40F4000020F07F4018BF404211F0004F41F4000121F07F4118BF494292EA030F3FD0A2F1010241FA03FC10EB0C0012
:40378000C3F1200301FA03F100F0004302D5494260EB4000B0F5000F13D3B0F1807F06D340084FEA310102F10102FE2A51D2B1F1004F40EBC25008BF20F0010040EA0300E9
:4037C0007047490040EB000010F4000FA2F10102EDD1B0FA80FCACF1080CB2EB0C0200FA0CF0AABF00EBC25052421843BCBFD0401843704792F0000F81F4000106BF80F48D
:4038000000000132013BB5E74FEA41037FEA226C18BF7FEA236C21D092EA030F04D092F0000F08BF0846704790EA010F1CBF0020704712F07F4F04D1400028BF40F0004012
:40384000704712F100723CBF00F50000704700F0004343F0FE4040F4000070477FEA226216BF08467FEA23630146420206BF5FEA412390EA010F40F4800070474FF00003B3
:4038800004E000BF10F0004348BF40425FEA000C08BF704743F0964301464FF000001CE050EA010208BF70474FF000030AE000BF50EA010208BF704711F0004302D540423A
:4038C00061EB41015FEA010C02BF84460146002043F0B64308BFA3F18053A3F50003BCFA8CF2083AA3EBC25310DB01FA02FC634400FA02FCC2F12002BCF1004F20FA02F282
:4039000043EB020008BF20F00100704702F1200201FA02FCC2F1200250EA4C0021FA02F243EB020008BF20EADC7070474FF0FF0C1CEAD0521EBF1CEAD15392EA0C0F93EABF
:403940000C0F6FD01A4480EA010C400218BF5FEA41211ED04FF0006343EA501043EA5111A0FB01310CF00040B1F5000F3EBF490041EAD3715B0040EA010062F17F02FD2AB4
:403980001DD8B3F1004F40EBC25008BF20F00100704790F0000F0CF0004C08BF49024CEA502040EA51207F3AC2BFD2F1FF0340EAC250704740F400004FF00003013A5DDC4D
:4039C00012F1190FDCBF00F000407047C2F10002410021FA02F1C2F1200200FA02FC5FEA310040F1000053EA4C0308BF20EADC70704792F0000F00F0004C02BF400010F46C
:403A0000000F013AF9D040EA0C0093F0000F01F0004C02BF490011F4000F013BF9D041EA0C018FE70CEAD15392EA0C0F18BF93EA0C0F0AD030F0004C18BF31F0004CD8D14A
:403A400080EA010000F00040704790F0000F17BF90F0004F084691F0000F91F0004F14D092EA0C0F01D142020FD193EA0C0F03D14B0218BF084608D180EA010000F000404F
:403A800040F0FE4040F40000704740F0FE4040F4400070474FF0FF0C1CEAD0521EBF1CEAD15392EA0C0F93EA0C0F69D0A2EB030280EA010C49024FEA402037D04FF080532D
:403AC00043EA111143EA10130CF000408B4238BF5B0042F17D024FF4000C8B4224BF5B1A40EA0C00B3EB510F24BFA3EB510340EA5C00B3EB910F24BFA3EB910340EA9C001E
:403B0000B3EBD10F24BFA3EBD10340EADC001B0118BF5FEA1C1CE0D1FD2A3FF650AF8B4240EBC25008BF20F0010070470CF0004C4CEA50207F32C2BFD2F1FF0340EAC25082
:403B4000704740F400004FF00003013A37E792F0000F00F0004C02BF400010F4000F013AF9D040EA0C0093F0000F01F0004C02BF490011F4000F013BF9D041EA0C0195E7FE
:403B80000CEAD15392EA0C0F08D142027FF47DAF93EA0C0F7FF470AF084676E793EA0C0F04D14B023FF44CAF08466EE730F0004C18BF31F0004CCAD130F000427FF45CAF0D
:403BC00031F000437FF43CAF5FE700BF032A2DE9F0070BD83AB1002311F803C000F803C001339342F8D1BDE8F007704782180C46034603E014F8011C03F8011C03F00306D2
:403C00001946A44601330134002EF3D11CF00304634608BFC1EB020C68D06542C4F1040A0CEB050733464FEACA0A5CF805604FEAC408551A08E057F8044F264604FA0AF459
:403C400049EA0404CC5004335C18032D26FA08F9A5F104050CEB0306EDDC002302E0F15CE154013319199142F9D3BCE753F8404C41F8404C53F83C4C41F83C4C53F8384C5B
:403C800041F8384C53F8344C41F8344C53F8304C41F8304C53F82C4C41F82C4C53F8284C41F8284C53F8244C41F8244C53F8204C41F8204C53F81C4C41F81C4C53F8184CA4
:403CC00041F8184C53F8144C41F8144C53F8104C41F8104C53F80C4C41F80C4C53F8084C41F8084C53F8044C41F8044C1C460D4640334031BCF13F0FACF1400CB6DC2146AD
:403D00002B46541B0FE051F8105C43F8105C51F80C5C43F80C5C51F8085C43F8085C51F8045C43F8045C0F2C0D469C4601F1100103F11003A4F11004E5DCCCEB02010023B3
:403D400003E0EC584CF8034004335E19032903EB0C04A1F10401F4DC7FE700BF032AC9B230B407D822B10023C15401339342FBD130BC704700EB020C034601E003F8011C08
:403D800003F003041A460133002CF7D14FF00133C2EB0C0403FB01F31FE042F8403C42F83C3C42F8383C42F8343C42F8303C42F82C3C42F8283C42F8243C42F8203C42F850
:403DC0001C3C42F8183C42F8143C42F8103C42F80C3C42F8083C42F8043C154640323F2CA4F14004D9DC2A46C5EB0C0407E042F8103C42F80C3C42F8083C42F8043C15461B
:403E000010320F2CA4F11004F1DC2A46C5EB0C0501E042F8043C14460432032DA5F10405F7DC01E004F8011B6445FBD3A0E700BF0EB448F22C1330B59CB01FACC1F6FF73BB
:403E4000054601A954F8042B4FF0FF3C18684FF40273ADF810302346059501956FF00045ADF812C0069503951B9400F0B9F8019B00221A701CB0BDE8304003B0704700BFB2
:403E80000CB40B4610B59CB01EAC01A905934FF4027C54F8042B01934FF0FF33ADF8123023461B946FF00044ADF810C00694039400F096F8019B00221A701CB0BDE81040C4
:403EC00002B070472DE9F04F85B092460C46039090681768002800F081804FF000090B684D46002D54D0A668B542B0463EBF18462E46A8463CD3A08910F4906F08BF1846CB
:403F000036D06269216902EB420B5B1A03F1010C0BEBDB7BAC444FEA6B0BE3455A463CBFE3465A4610F4806F37D011460398019302F0F8FB019B00283BD01A46216901934D
:403F40000290FFF743FEA289019BDDF808C022F4906242F08002A2812E46A846C3EB0B020CEB0300A260C4F810C02060C4F814B04246494602F0E2FEA2682368961BA6605B
:403F8000DAF8082043442360551BCAF80850FDB1D7F800907D680837A3E70398019303F0D9FB019B84460028D6D10398216902F08FFA039A0C234FF0FF3013600023A289F2
:403FC000CAF8043042F04002CAF80830A28102E02846CAF8045005B0BDE8F08F5060FAE72DE9F04FC5B00E469A461546099002F055FBB38913F0800F00681B9003D03369E6
:40400000002B01F08C800DF17409B3464C46002210920023189217921A920D922DAA199328320DF1F703169207930023CDF8DC90389339932B78B3F1250218BF0122002B38
:404040000CBF002202F0010202B32E4616F8013F1A1E18BF0122252B0CBF002202F00102002AF3D1771B08BF35460FD06760389B399A01332560D219072B3992389379DCB4
:4040800008340D983546C0190D903378002B00F0378700214FF00002CDF828A06B1C0C914FF0FF388DF80F218A466A782B204FF0200C5D1CA2F12003582B00F21982DFE8FE
:4040C00013F029021702170235021702170217021702170217023C0248021702C802CF021702EF02F602F602F602F602F602F602F602F602F6021702170217021702170218
:40410000170217021702170217024F028802170288021702170217021702C10217021702EE0317021702170217021702930317021702AD03170217021702170217021702AF
:404140001702170217021702C703D8038802880288020B03D803170217020F031702190329033E038C03170259031702840317021702EA000998594637AAFFF7A3FE002829
:404180007CD14C467DE71899012940F35284119A01236360389B2260399A013338930132072B399200F39685083401236360389B399A01331B980132072B399220603893B6
:4041C00000F37D8508341098002200231999FFF7F5F9002840F003851899119B4A1E6260591C389B21603999013338938A18072B399200F32F8408341A9A1A9862603EAA79
:40420000389B2260399A013338931218072B399200F34F8104F108031AF0040F00F056810C990B9A8E1A002E40F35081102E48F6D007D8BFC0F2000740F3DE831024C0F248
:4042400000070DF1DC08DDF824A003E0103E102E40F3D2835C60389A399901321F601031072A399103F108033892EFDD504659464246FFF727FE4B460028E7D05E46B389BA
:404280000D9813F0400F18BF4FF0FF300D900D9845B0BDE8F08F1AF0200F48F61410C0F200001492179000F0C3820A99CB1D23F0070303F108020A92D3E9006756EA0701EB
:4042C0000CBF002201221AEA020F40F0BC8402234FF000018DF80F11B8F1000FA8BF2AF0800AB8F1000F18BF42F00102002A00F06081012B00F03484022B00F01784169962
:40430000CDF82C8011914FEAD6084FEAD70C48EA477806F0070067464646303056EA070201F8010DEFD11AF0010FDDF82C80119140F0DB84169B5B1A0E930E9BCDF85480CB
:404340004345B8BF43460B939DF80F3113B10B9901310B911AF00202139202D00B9B02330B931AF08400129038D10C990B9A8E1A002E33DD102E48F6D007D8BFC0F2000702
:4043800020DD4FF01008C0F2000702E0103E102E18DDC4F80480389B399A013327601032072B399204F108043893EFDD0998594637AA4C46FFF786FD00287FF45FAF103EF2
:4043C000102EE6DC6660389B27605A1C399B38929B19072A399300F3F78308349DF80F3173B101236360389B43AA03322260399A013338930132072B399200F340830834E4
:40440000139B6BB102236360389B43AA2260399A013338930232072B399200F33A8308341298802800F0B28215980E9BC61A002E2EDD102EA74FC8BF4FF0100803DC1BE0C8
:40444000103E102E18DDC4F80480389B399A013327601032072B399204F108043893EFDD0998594637AA4C46FFF72CFD00287FF405AF103E102EE6DC6660389B27605A1C3E
:40448000399B38929B19072A399300F3EE8208341AF4807F40F019820E99119A6160389B2260399A013338935218072B39927FF7B1AE0998594637AAFFF704FD00287FF40D
:4044C000DDAE1AF0040F4B467FF4AAAE399B0D980B9A0C998A42ACBF801840180D90002B40F09E820023DDF828A038934C46A1E51492002A00F0048501208DF8B4204FF011
:4045000000012DAA0B908DF80F1111920E90002115911FE79DF80F31002B40F00C840A992B468DF80FC12A780A91C2E50A994AF0010A2A782B460A91BBE50A9B0A9A1B6846
:40454000111D002B0C93C0F2B2852A782B460A91AFE50A992B468DF80F012A780A91A8E54AF0100A14921AF0200F00F087810A98C31D23F0070303F108010A91D3E9006720
:40458000002E77F10000C0F2768356EA07014FF001030CBF00220122B8F1000FA8BF2AF0800AB8F1000F18BF42F00102002A7FF4A0AE002B40F0E5811AF0010F00F0E18180
:4045C00030238DF8DB302DAB012027330E901193B3E61AF0080F149200F0BF830A98C31D23F0070303F108010A915E681F68199610973846314603F087FA0346002800F00D
:4046000093843846002200233146FEF7E1FF002840F015849DF80F31032048F6081248F604110B901498C0F20001C0F200022AF0800A4728D8BF0A460321119200220E9190
:40464000159283E60A994AF0080A2A782B460A912FE50A992A784AF0040A2B460A9128E52B4613F8012B2A2A00F0CF86A2F13001092988BF4FF0000810D802354FF00008A8
:4046800015F8012C08EB88082B46013501EB4808A2F130010929F3D948EAE8781D4609E50A994AF0800A2A782B460A9101E5A2F1300100262B4606EB860613F8012B01EBBF
:4046C0004606A2F130011D460929F3D90C961D46F0E400BFE08800004AF0400A0A9934E72A786C2A00F018840A994AF0100A2B460A91DEE41AF0200F00F023830A990D9A65
:404700000B6810464FEAE0710A9AC3E9000102F1040A8FE41AF02003149200F0C7800A9BDA1D002322F0070202F108000A90D2E9006756EA07010CBF00220122C8E50A9A1D
:4047400048F614100A997823C0F200001493166804318DF80D314AF0020A3023321E18BF01228DF80C3136464FF00007179002230A91ADE50A9B14924FF00002181D8DF824
:404780000F211B680A901193002B00F04D85B8F1000F1198C0F22A850021424602F094FA0346002800F06E8511981B1A0E93434540F38284CDF83880002128EAE8789DF8F7
:4047C0000F31CDF82C801591C0E51AF0200F149210D00A9BDA1D0123A4E70A994AF0200A2A782B460A9164E44AF0100A14921AF0200FEED11AF0100F40F054821AF0400F3C
:4048000000F050820A980123011D0A910688321E18BF012236464FF0000759E51AF0200F149248F6F002C0F2000217927FF43DAD1AF0100F40F02D821AF0400F00F029829A
:404840000A990A1D0A920E8836464FF0000735E5149201200A9A4FF000010B900E90136804328DF80F110A922DAA8DF8B43011924DE61AF0200F14927FF479AE1AF0100FD2
:4048800040F0ED811AF0400F00F0E9810A98011D0A91B0F9006036464FEAE67770E64AF0100A14921AF020037FF439AF1AF0100200F05F820A9A101D0A901668321E18BF5C
:4048C000012236464FF0000702E5149B652B7FF75AAC1098002200231999FEF76FFE002800F0E18001236360389A48F63013C0F200032360399B013238920133072A399343
:40490000D8BF04F1080300F39F82429A1898824203DB1AF0010F3FF47FAC1B9901225A60389A19603999013238920131072A399100F3EB830833189A561E002E7FF76CACD0
:40494000102EA04F40F3E98110240DF1DC0803E0103E102E40F3E1815C60389A399901321F601031072A399103F108033892EFDD099859464246FFF7A5FA4B460028E7D0A3
:404980007CE4169900220E921191D6E40C990B9A8E1A002E7FF748AD102E8A4FC8BF4FF0100803DC1BE0103E102E18DDC4F80480389B399A013327601032072B399204F11A
:4049C00008043893EFDD0998594637AA4C46FFF779FA00287FF452AC103E102EE6DC6660389B27605A1C399B38929B19072A399300F38881083417E55E60389A1F60399B15
:404A000001323892F318072A39937FF760AD0998594637AAFFF756FA00283FF457AD2DE40998594637AAFFF74DFA00283FF45AAD24E41AF0010F7FF4AAAB01236360389BB3
:404A4000399A013311990132072B3992216038937FF7D1AB0998594637AAFFF733FA00287FF40CAC4C46FFF7C7BB0998594637AAFFF728FA00287FF401AC4C4608E50998D5
:404A8000594637AAFFF71EFA00287FF4F7AB4C46B6E40998594637AAFFF714FA00287FF4EDAB4C46BCE4429B002B40F3D98118998B42C0F26F81119A6160389B2260399A2C
:404AC000013338935218072B3992D8BF04F1080300F3BA83429C1898241A002C40F39B81102C384F40F38B81CDF838A01026AA460DF1DC08099D03E0103C102C40F37C815A
:404B00005E60389A399901321F601031072A399103F108033892EFDD284659464246FFF7D1F94B460028E7D0FFF7A8BB1698DDF85CC003461190310906F00F0241EA077105
:404B400038091CF802200E46074656EA070103F8012DF0D1169A1193D21A0E92FFF7EDBB00230922B24273EB0700169B3EBFCDF82C80A0461C461AD2304639460A2200232F
:404B800003F080FA30463946002302F1300C0A2204F801CD03F076FA06460F4609200021B042B941E8D323464446DDF82C805A1E3036119203F8016C169B9B1A0E93FFF7FC
:404BC000BCBB00BFE08800000998594637AAFFF779F900287FF452AB4C46FFF7FFBB1898461E002E7FF708AB102E9C4FC8BF4FF0100803DC1BE0103E102E18DDC4F80480A7
:404C0000389B399A013327601032072B399204F108043893EFDD0998594637AA4C46FFF751F900287FF42AAB103E102EE6DC6660389B399A013327609219072B39923893F1
:404C40007FF7D9AA06E7149830214AF0020A012202238DF80C118DF80D01FFF739BB0A9A131D16680A9336464FEAE677002E77F10000BFF68AAC764267EB47072D2356EA3A
:404C800007028DF80F310CBF002201220123FFF723BB0A9B181D1E680A9036464FF00007FFF70CBB0A9A131D16680A930123321E18BF012236464FF00007FFF709BB09982B
:404CC000594637AAFFF7FEF800287FF4D7AA4C46FFF779BA0998594637AAFFF7F3F800287FF4CCAA4C46FFF760BA302800F09682119A302302F8013D169B11929B1A0E937C
:404D0000FFF71BBB0998594637AAFFF7DBF800287FF4B4AA4C46FFF787BB5E60389A399901321F608919072A399138923FF7C1AB0833FFF771BA0A992B462A780A91FFF73A
:404D4000B8B91AF0100F00F0CD810A980D9900F1040A03681960FFF76DB90A9AD31D23F0070303F108000A905E681F68199610973FE41AF0400300F0A9810A9913460A1D7D
:404D80000A920E88321E18BF012236464FF00007FFF79EBA119A636038992260399A01313891D3180729399300F3628208340123429E6360389B399A01331B980132072B25
:404DC0003893D8BF04F108032060399200F34682429A119918988E191E60811A596039998A1A3899121839920131389107293FF760AB0833FFF710BA5546DDF838A05C60F5
:404E0000389A399901321F600919072A3991389200F37F8208331AF0010F3FF4FDA91B9901225A60389A19603999013238920131072A39913FF73DAB0833FFF7EDB92D23F6
:404E40008DF80F31FFF7E8BB0998594637AAFFF739F800287FF412AA4B4656E5E088000001236360389A48F63013C0F200032360399B013238920133072A3993D8BF04F101
:404E8000080300F37381429A2AB9189818B91AF0010F3FF4C1A91B9901225A60389A19603999013238920131072A399100F368810833429C6442002C40F38781102C9E4F06
:404EC00040F3A08110260DF1DC0803E0103C102C40F398815E60389A399901321F601031072A399103F108033892EFDD099859464246FEF7E7FF4B460028E7D0FFF7BEB92A
:404F0000399B5E46002B3FF4BAA90998594637AAFEF7D8FFFFF7B3B90A994AF0200A6A786B1C0A91FFF7C5B838463146089302F0FDFD089B002840F00181B8F1FF3F08BFC4
:404F400008F107080ED0149A672A14BF00230123472A08BF43F0010323B1B8F1000F08BF4FF0010833463A46CDE93A234AF4807A3B9B002BC0F20A8200231593149966295E
:404F800014BF00230123462908BF43F001031293002B00F08A810323CDF82C800B990E970F9600930998DDE90E23019142A9029141A9039140A9049100F0EAFA149AB2F1BE
:404FC000670318BF0123472A0CBF002303F0010311902BB91AF0010F08BFDDF800C11AD0119B0B98129903EB000C29B11B78302B00F0D080429B9C4438460022002331461D
:40500000CDF820C0FEF7DAFADDF820C0002800F07381CDF800C114981199672814BF00230123472808BF43F00103C1EB0C011891002B00F04A81429A12F1030F0E9202DB99
:40504000904580F24B81149B023B14930E9A1498531E4293002B8DF8F800C0F2D1812B228DF8F920092B00F362813FA930338DF8FB3030238DF8FA303EAB189ACB1A189921
:405080001A935918012A0E9140F3CC810E9801300E9020EAE0710B91159B002B00F0FD802D2300208DF80F311590FFF750B90C9B5B420C93FFF7CEBA0E9A00209DF80F31FD
:4050C00022EAE27215900B92FFF740B90A98011D0A910668321E18BF012236464FF00007FFF7F6B81AF0400F17BF0A9A0A990D9802F1040A11BF136801F1040A0B680D9A25
:4051000014BF18801A60FEF795BF0998594637AAFEF7D8FE00287FF4B1A84B460BE40998402101F0FFFA30603061002800F08D8140237361FEF767BFE0880000032048F693
:40514000101248F60C110B901498C0F20001C0F2000215934728D8BF0A462AF0800A032111929DF80F310E91FFF7F0B80998594637AAFEF7A7FE00287FF480A84B4682E612
:405180000998594637AAFEF79DFE00287FF476A84B468EE63846002200233146CDF820C0FEF70CFADDF820C000287FF423AF0B9AC2F1010342931EE70998594637AAFEF738
:4051C00081FE00287FF45AA84B46189A11985A60389A399918600132189838920918072A39913FF766A90833FFF716B80021159102F0ACFD9DF80F3120EAE0720E900B92F6
:40520000FFF7A4B85C60389A1F60511C399A3891121907293992CFDC0833D6E716991198081A0E90FFF789B8B8F1060F34BF4146062148F62812C0F2000221EAE1730E9165
:4052400011920B93FFF763B90998594637AAFEF739FE00287FF412A84B463BE40998594637AAFEF72FFE00287FF408A84B46AFE50998594637AAFEF725FE00287EF4FEAF56
:405280004C4694E5CDF8388028EAE8781590CDF82C809DF80F31FFF759B80E989DF80F3120EAE0700B90FFF751B8149A652A14BF00230123452A08BF43F00103002B32D0A2
:4052C00008F101030B93022368E61498652862DD149A662A1CBF429B0E936FD0189A0E9B9A425BDC1AF0010F40F0818023EAE37067210B901491CFE6409B9C4598BF9C46C7
:405300007FF689AE302203F8012B9C454093FAD881E60998594637AAFEF7D4FD00287EF4ADAF4B4677E5CDF82C80023336E646F2676C0DF1F700C6F2666C8CFB0321DA17A9
:40534000C2EBA10202EB8201A3EB410113463031092A00F8011DF0DC3033421ED9B200F8011C079B934298BF0DF1FA017FF684AE02460DF1FB0301E012F8011B03F8011C9A
:405380001946079801339042F6D875E62D2006F100461590F2E542990E9157E60E9918980029DABF0E9AC2F1020301231B18672123EAE3720E9314910B926DE64298002811
:4053C0000E9038DDB8F1000F07D11AF0010F04BF20EAE0710B913FF45FAE0E9A66201490531C43440E9323EAE3710B9154E60E9A6723149301320E9222EAE2700B904BE6E0
:405400002D225B428DF8F9202CE60A991A78D1F8008004310A91B8F1000FB8BF4FF0FF38FEF747BE1AF0010F04BF21EAE1730B933FF432AE2AE6B8F1000F0ED11AF0010F35
:405440000BD101220B920E9226E609980C234FF0FF310D910360FEF71ABF08F10203662023EAE3710E9314900B9115E6000000002DE9F84F03690E69824689469E4200F36B
:405480008380F21C01F1140500F11404013E92008B18121803F1040859685068013102F0B3FC0746002839D000239C461A46E958E0581FFA81FE4FEA114B81B20EFB07CE43
:4054C00051180BFB07FC0CEB1E4C1FFA8EFECEEB01011FFA8CF24FEA1C4CC2EB10421FFA81FE02EB21424EEA0241E1500433121459198845DBD2321D0AEB8203596869B9B9
:405500009C4209D25AF8222012B105E01A681AB9043B013E9C42F9D3CAF810604946504601F0BEFC00282CDB002301379C46EA58E05891B2120C1FFA80F9C2EB1042C1EB73
:405540000901614402EB214289B241EA0241E15004334FEA224C5A199045E8D2321D0AEB8203596869B99C4209D25AF8222012B105E01A681AB9043B013E9C42F9D3CAF892
:4055800010603846BDE8F88F0020BDE8F88F00BF2DE9F04F466AA1B00446904699462D9D002E00F02384326882B1616A4FF0010C766820460B6856604A6819460CFA02F286
:4055C0009A6001F0A7FD636A00221A60B9F1000638DB00232B6040F20003C7F6F0731A4606EA0303934217D00022002340464946CDE90689FDF7E2FF002829D02C9801235E
:405600002E990360002900F0D080794B581E2E9A136021B0BDE8F08F2C9842F20F730360B8F1000F00F0958048F64010C0F200002E990029EDD0C278C31C002AE7D000F1FB
:405640000803E4E726F000460123B1462B60C2E72046DDE906231EA900911FA9019101F0ABFDC6F30A558346002D7ED0DDE90601A5F57E751F9F073D21F07F4323F47003F4
:4056800043F07E51002341F4E001199340F200030022C3F6F873FDF775FB4FA3D3E90023FDF724FD4EA3D3E90023FDF76DFBCDE908012846FDF7B4FC4BA3D3E90023FDF780
:4056C00015FD02460B46DDE90801FDF75DFBCDE90801FDF7A5FF002200230646DDE90801FDF776FF40B13046FDF79AFCDDE90823FDF764FF00B9013E162E5BD9012318934C
:40570000013FB7EB050A42BFCAF1000ACDF83CA04FF0000A01D400220F92002EC0F27183B2440023179615932A9B092B62D8052B40F377862A98002704382A902A998B1E10
:40574000032B00F2DD83DFE813F0A503D803D503C40326F07F4626F47006002E7FF464AF48F63410C0F2000062E71F9F1E9BFB1803F586639D1C202DDCBFC5F1200008FA3D
:4057800000F008DD1E3BC5F1400216FA02F228FA03F342EA0300FDF733FCA5F586650122033D1992A1F1F87170E748F63010C0F200002EE748F69013DDE90601C0F20003C8
:4057C00003EBC603D3E90023FDF702FF002840F02083189094E700BF61436F63A787D23FB3C8608B288AC63FFB799F501344D33F3189000000234FF0FF301F4601212A9314
:405800001190169108902B93656A00236B602046696801F09BFC636A28601B681093002F00F05B81002E40F32A8448F6901306F00F02C0F20003351103EBC20315F0100F0F
:40584000D3E90001CDE90C0100F0E78248F66823DDE90601C0F2000305F00F054FF00308D3E90823FDF76CFDCDE91201BDB148F66827DDE90C23C0F2000715F0010F104650
:40588000194607D0D7E9002308F10108FDF72EFC02460B4608376D10EFD1CDE90C23DDE90C23DDE91201FDF74BFDCDE90C011899002900F0DE8040F20003DDE90C01002296
:4058C000C3F6F0734FF00005FDF782FE08B14FF00105089A002AD4BF002505F00105002D00F0C780119B002B40F3F58040F200030022C4F22403DDE90C01FDF7F7FBCDE9D1
:405900000C0108F10100711E1291FDF789FB02460B46DDE90C01FDF7E9FB40F200030022C4F21C03FDF730FADDF844C08046A1F15079169B002B00F0AD8348F6901340F21F
:405940000001C0F20003002003EBCC03C3F6E071CDF80CC053E90223FDF7F2FC42464B46109DFDF70FFA80468946DDE90C01FDF757FE0746FDF754FB02460B46DDE90C0146
:40598000FDF700FA07F13003CDE90C01404605F8013B4946DDE90C23FDF738FE002840F0138240F20001DDE90C230020C3F6F071FDF7E8F902460B4640464946FDF726FEB4
:4059C000DDF80CC0002840F0E783BCF1010F40F38280CDF868B00127CDF870A01D966646DDE90CAB0C9410E040F200010020C3F6F071FDF7C7F942464B46FDF7E9FD0028D0
:405A000040F0C783B74280F28B8440F20003404649460022C4F224030135FDF767FB40F200030022C4F224038046894650465946FDF75CFB8B468246FDF7F2FD0446FDF79A
:405A4000EFFA303402460B4650465946FDF79AF9109A4B46D4554246013782468B46FDF7B7FD52465B460028BED0DDF868B00C9CAAE14046FDF7D4FADDE90C23FDF736FBAE
:405A800040F200030022C4F21C03FDF77DF9089AA1F150758046A946002A40F0EC8240F20003DDE90C010022C4F21403FDF76AF942462B46CDE90C01FDF7A8FD002840F0DF
:405AC0004A824246DDE90C0105F10043FDF780FD002840F0D581DDE906891E9B6FEA03074FEAD7770E2ECCBF002707F00107002F00F0B7802B9848F69013C0F200030899F2
:405B000003EBC603C20F0029CCBF002202F00102D3E90001CDE90401002A40F0A08102460B4640464946FDF70BFC109DFDF778FD8246FDF775FADDE90423FDF7D7FA02463B
:405B40000B4640464946FDF71DF90AF1300305F8013B089A012A8046894652D040F200030022C4F22403FDF7C1FA00220023CDE90601FDF723FD002840F0EB8110984FF026
:405B80000108CDF82CB0A346871C0F96DDF82090DDE906450AE0FDF7A9FA0022002304460D46FDF70BFD002840F0CE81DDE904232046294608F10108FDF7C2FB3E46FDF781
:405BC0002FFD8246FDF72CFADDE90423FDF78EFA02460B4620462946FDF7D4F800220AF1300C07F801CC0137C14540F20003C4F22403D0D135465C460F9E8046DDF82CB0A9
:405C0000894642464B4640464946FDF7BDF8804689464246DDE904014B46FDF7D9FC60B9DDE9040142464B46FDF7C8FC002800F090811AF0010F00F08C81109900E01D469B
:405C400015F8012C6B1E392A40F067838B42F6D110993023013631220B70109B1A701296B2E0169A002A40F0DF80159F0F9D0C92002DD4BF00230123BAF1000FD4BF002302
:405C800003F001034BB1AA45B4BF53462B460F98C3EB0A0AED1AC01A0F90159900291CDD169A002A00F0E982002F12DD0C993A46204601F0ABFC5A460C9020460C9901F01E
:405CC000BDFB594603462046039301F023FA039B9B46159BDA1B40F011830121204601F047FC06901798002805DD06992046179A01F08CFC06902A99012940F30A81002770
:405D0000179B002B40F061820123534413F01F0340F02A811C230F9A9A44ED18D2180F920F9B002B05DD59461A46204601F028FB8346BAF1000F05DD06995246204601F03F
:405D40001FFB06901898002840F029822A9808990228D4BF002301230029CCBF002303F00103002B00F00C81002940F08C8005220699089B204601F005FC069058460699EA
:405D800001F08EF800287EDD109D01360027DDF830A0312305F8013B0699204601F0BAF9BAF1000F00F0D5803B1E18BF012357450CBF002303F00103002B40F0D0805146ED
:405DC000204601F0A7F912962046594601F0A2F9129A531C00222A702C982E990360002900F0D4812E9A1098156012E4102000F091FCC66046608660066006466062FFF79C
:405E0000D2BB0F98714200221591801B17920F908AE40021013E189172E4DDE906234FF00208CDE9122321E52A98012840F36C82089A1598531E9842C0F25882C71A089B24
:405E4000002BA8BF0F9DC0F273820F9A204601219A44D2180F9201F08BFB0C9008E7089B73B940F200030022C4F21403DDE90401FDF73CF942464B46FDF7BEFB00286AD092
:405E8000002206920C922B9B0027DDF830A0DE43109D81E7002116912B98002840F39F812B98014611900890656A002217296A6040F2AB8204235B00013203F11400884298
:405EC000F9D9089B6A600E2B8CBF002707F001079DE4012216922B9BF3181193591C0029C8BF0891E0DC0E298CBF002707F00107089189E401231693CEE700221692EAE7B3
:405F00004FF0FF33002701201193169008932B977AE4B8F1000F7FF4F2AE29F07F4323F47003002B7FF4EBAE40F20003C7F6F07309EA0303002B3FF4E2AE0F9A0AF1010A51
:405F4000012701320F92DBE635465C460F9EDDF82CB0129638E7002006900C9014E73946204601F0D7F82AE7C3F12003042B40F354820F99043B9A44ED18C9180F91CFE610
:405F80001699002900F03181002D05DD0C992A46204601F0F5F90C90002F40F0EA81DDF830A0109D012308F001000C9F11900F951D460C9606995846FFF75AFA39463030CE
:405FC0000B90584600F06CFF069952460646204601F05AF9C3688046002B3DD04FF001094146204601F096F82A9959EA010103D1119A002A00F0EB81002EC0F29E812A9A32
:40600000324303D1119B002B00F09781B9F1000F00F3CE810F990B9A01F8012B089B0F919D4200F0C28159460A220023204601F0A9FA57453946834614D00A220023204611
:40604000013501F09FFA51460A2200230746204601F098FA8246ADE75846414600F020FF8146BDE720460A220023013501F08AFA074682469EE71296DDF820C059E47542FE
:40608000002D40F00181DDE906014FF00208CDE90C010CE448F690114246C0F200014B4601EBCC01CDF80CC0109D51E90201FDF71DF8CDE91A01DDE90C01FDF7B1FA0746C0
:4060C000FCF7AEFF0B460246DDE90C01FCF75AFE07F13003CDE90C0105F8013BDDF80CC0BCF1010F29D0D146DDE90C01B246109E1C9501276546A04640F200030022C4F2C4
:406100002403FCF7F3FFCDE90C01FDF789FA0446FCF786FF303402460B46DDE90C01FCF731FEF4550137AF42E6D11C9D013F56464446CA46ED19CDE90C0140F200030022ED
:40614000C3F6E073DDE91A01FCF71EFE02460B46DDE90C01FDF75AFAF0B940F20001DDE91A230020C3F6E071FCF70CFE02460B46DDE90C01FDF72CFA00283FF4ACAC2B46BF
:406180001D4613F8012D302AFAD01DE61098FFF740BADDF868B00C9C129E109950E55846069900F07DFE0028BFF6D0AD594620460A22002301F0E6F91699013E834600295B
:4061C00040F01981119A0892C0E50698036900EB8303186900F012FEC0F1200395E50121119108912B91FFF70FBB109DB146169FAA46DDF81880089E02E001F0C3F9834614
:4062000041465846FFF734F901350A220023594600F1300C0AF807C001372046BE42ECDCDDF830A04E460027CDF82CC059460122204601F0A5F80699834600F031FE002820
:406240000FDD109900E01D4615F8012C6B1E392A40F08C808B42F6D11099312301360B709AE503D10B9810F0010FEAD12B461D4613F8012D302AFAD08EE55946159A204688
:4062800001F0C4F9834628E505F00F0348F69012C0F20002DDE9060102EBC303D3E90023FCF724FF2D1108BF4FF00208CDE90C013FF4FDAA48F66827DDE90C234FF0020854
:4062C000C0F2000715F0010F1046194607D0D7E9002308F10108FCF709FF02460B4608376D10EFD1CDE90C23FFF7E1BA1599179A5B1AC918D21815911792A0E55946204661
:4063000001F084F98346E8E41999002947D003F58663159F03330F9D97E50132D2B29DE4DDF868B0DDF870A01D9E0C9CFFF7D3BB0F99002308980D1A87E5B9F1000F0F9D21
:406340000C9E0FDD59460122204601F019F80699834600F0A5FD002847DD0B99392931D001310B910B9A05F8012B15E501321A7012E50C9A2046516800F0E8FE0C9B03F190
:406380000C011A690232920005460C30FDF71EFC20462946012200F0F3FF824601E61F9B159F0F9DC3F136034FE50F9D0C9E3DE70B9B0F9D392B0C9E04D00B98431C05F881
:4063C000013BE9E4392305F8013B10993CE70B9833460F9D39280C9EF4D0002B01DD01300B900B9905F8011BD6E4BBD10B9810F0010FB7D0B1E700230C9920460A2201F0A7
:40640000C1F8119B08930C90A0E408990E298CBF002707F00107FFF7FAB93FF481AC1C3379E40127FFF78AB9F8B548F22024C1F6FF740F46054600F0DDFCA3685E6826F038
:40644000030606F57E630F33DF1B3F0B013F3F03B7F5805F07DB0021284601F075FBA368F318834204D0284600F0C6FC0020F8BD7942284601F068FBB0F1FF3F10D0A268E8
:4064800048F25463C1F6FF73F61B46F00106284656601A68D71B1F6000F0AEFC0120F8BD0021284601F050FBA368C21A0F2ADADD48F2286448F25461C1F6FF74C1F6FF7145
:4064C00042F001022468001B08605A60CBE700BF2DE9F04105460C46002900F0888000F089FCA4F1080248F220205668C1F6FF7026F00103D0F808C0D1188C454F6827F084
:40650000030700F0958016F001064F605FD00026CC19646814F0010F06D1DB19002E7AD08C68C9688C60E16043F00101D3505160002E47D1B3F5007F5BD3590A04299EBF50
:406540004FEA931C0CF1380C4FEACC0428D914299CBF01F15B0C4FEACC0421D954299EBF4FEA133C0CF16E0C4FEACC0418D9B1F5AA7F9EBF4FEAD33C0CF1770C4FEACC0424
:406580000ED940F2545C614595BF4FEA934C4FF47C740CF17C0C4FF07E0C98BF4FEACC040419A168A14203D164E089688C4204D0486820F003008342F7D3CB68D3609160C2
:4065C000CA609A602846BDE8F04100F015BC54F8084C00F1080C121B1B199468644547D0D2F80CC0CCF80840C4F80CC090E7BDE8F081DB084FF0010C466800EBC3019B10C2
:406600000CFA03F3D1608C6846EA030343609460E2608A60D6E78C681C4FBC4281D1D35043F00103E260A26053609460D460C9E7FB1816F0010F07D154F8081C521A5B185B
:40664000D4689168A160CC6048F22C618260C1F6FF7143F0010050600A689342B2D348F250632846C1F6FF731968FFF7DDFEA9E701264DE7012644684FEAAC0C0B4606FA62
:406680000CFC44EA0C04446098E700BF2882FF1F48F64813C0F2000318687047004870474C890000004870474C89000070B505460E46144672B148F644111046C0F20001E0
:4066C00001F056FA58B948F644102C62C0F20000EE6170BD48F64410C0F2000070BD48F600112046C0F2000101F042FA0028EAD0002070BD48F22C130A46C1F6FF7301468C
:406700001868D3E748F22C130146C1F6FF731868FFF7DEBE48F22C130146C1F6FF73186800F000B82DE9F04F01F10B04162C83B006462FD8002310248C422CBF194643F053
:406740000101002930D1304600F054FBB4F5FC7F2ED24FEAD40E48F22025C1F6FF7505EBCE02D368934200F006825A6803F10805D968304622F0030C9A6863445C688A6015
:4067800044F00104D1605C6000F036FB284603B0BDE8F08F24F00704E30F8C422CBF194643F001010029CED00C2300253360EDE75FEA542E04BF4FEAD40E4FEACE0040F08D
:4067C000908048F22025C1F6FF752818C368984206D10DE0002A80F26F81DB68984207D0596821F003010A1B0F2AF3DD0EF1FF3E0EF1010E48F22027C1F6FF7707F1080159
:406800008B68994208BF7A6826D05A6822F0030CC4EB0C020F2A00F39481002AC960896080F29980BCF5007F80F065814FEADC0C4FF0010A7A6807EBCC004FEAAC0C0AFABD
:406840000CFCD860D0F808804CEA02027A60C3F80880C8F80C3083604FF0010C4FEAAE030CFA03FC944500F2828012EA0C0F08D12EF0030E4FEA4C0C0EF1040E12EA0C0F72
:40688000F8D007EBCE09F246C846D8F80C30984507D168E1002A80F27881DB68984500F06281586820F00300021B0F2AF2DD1D461F19D3F80CC044F0010E55F8084F3046E8
:4068C000BA5042F00102C3F804E0CCF80840C4F80CC08F60CF607A60B960F96000F08CFA54E7BEF1040F9EBF4FEA941E0EF1380E4FEACE007FF665AFBEF1140F9CBF0EF100
:406900005B0E4FEACE007FF65CAFBEF1540F9EBF4FEA143E0EF16E0E4FEACE007FF651AFBEF5AA7F9EBF4FEAD43E0EF1770E4FEACE007FF646AF40F254539E4595BF4FEAB4
:40694000944E4FF47C700EF17C0E4FF07E0E98BF4FEACE0035E703EB0C0203F108053046536843F00103536000F046FA0EE7D7F80880D8F8043023F00309C4EB09024C4536
:4069800094BF002301230F2AD8BF43F00103002B00F0A18048F2506BD5F80824C1F6FF7BDBF8003010331B19B2F1FF3F06D003F57E631F3323F47E6323F01F03194630467D
:4069C000019301F0C1F8019BB0F1FF3F824600F0F48008EB0901814200F2EC80DBF804209A185145CBF8042000F04581D5F8085448F22020C1F6FF70B5F1FF3F08BFC0F88C
:406A000008A403D05244511ACBF804101AF00705304617BFC5F108054FF48055AA4405F5805553441B051B0DED1A294601F08CF8B0F1FF3F00F02C81CAEB0001491941F076
:406A40000101DBF8042048F25063C7F808A0C1F6FF73AA18B845CBF80420CAF8041017D0B9F10F0F40F2DF80A9F10C01052521F0070108EB01000F2985604560D8F8040070
:406A800000F0010041EA0000C8F8040000F2AC80D04648F25063DBF82C10C1F6FF738A42DBF8301088BFDA6248F25063C1F6FF738A4288BF1A6382E05C189A68D968304606
:406AC000666803F108058A6046F00103D160636000F092F95AE608EB040342F0010244F001043046C8F8044008F108055A60BB6000F082F94AE64FEA5C22042A54D9142A4C
:406B000000F289805B324FEAC208A84448F22027C1F6FF77D8F80800404503D16FE08068804504D0426822F003029445F7D3D0F80CC0C3F80CC098607A68C360CCF80830B7
:406B40008AE61F19304644F00104CF605C6003F10805BA5042F001028F607A60B960F96000F04AF912E60AF1010A1AF0030F5FD003F1080889E603F10802D3689A4208BF8D
:406B80000EF1020E3FF436AEEFE51D461918DA68304655F8083F4C68936044F00104DA604C6000F029F9F1E54FEA9C1238324FEAC208AAE7B8453FF411AFD7F80880D8F851
:406BC000042022F00302944294BF00230123121B0F2AD8BF43F00103002B3FF47CAF3046002500F009F9D1E508F1080130460193FFF76EFC019BD7F808805A6849E74FF05A
:406C0000010AD7F80480921084460AFA02F248EA02027A608DE7542A24D84FEA1C326E324FEAC20871E70123D046CAF80430C6E74A461EF0030F13460EF1FF3E33D053F8A2
:406C400008299A42F5D07B684FEA4C0C9C453FF68EAEBCF1000F3FF48AAE1CEA030F27D0D6460EE6B2F5AA7F15D84FEADC3277324FEAC20849E70805000D00287FF4B6AE3D
:406C8000D7F808804B4443F00103C8F8043000E701210025D5E640F2545082420DD94FF47C787E2231E77B6823EA0C037B60CBE74FEA4C0C0AF1040ACFE74FEA9C427C32CA
:406CC0004FEAC20821E700BF10F0030FC9B210B410D0002A2FD003788B422AD0013A05E0002A28D00378013A8B4222D0013010F0030FF5D1032A11D941EA012444EA044491
:406D0000036884EA0303A3F1013C2CEA030313F0803F03D1043A0430032AF1D85AB103788B4206D0013A32B110F8013F013A8B42F9D110BC70470020FBE700BF88428C4648
:406D400070B4054614460ED98B1898420BD242B1C2EB030C0146531E1CF80320CA54013BFAD270BC70470F2A09D8002CF9D000231CF80320EA540133A342F9D1F1E741EAD5
:406D8000000313F0030FF0D194460C4603462568ACF1100C1D6065685D60A5689D60E5681034DD601033BCF10F0FF0D8103A4FEA121C0CF10105CCEB0C7C2D0102EB0C165A
:406DC00001EB050C4519032E3446CED900235CF80320EA500433F21A032AF8D8043EB3085A1CC3EB83739200944406EB8304AD18BBE700BF704700BF704700BF020C034670
:406E00001204B2B1002013F07F4F01D108301B0213F0704F01D104301B0113F0404F01D102309B00002B03DB13F0804F04D00130704703041020E6E7202070470368024667
:406E400013F0070009D013F0010F21D113F0020F22D19B0802201360704799B209B91B0C102013F0FF0F01D108301B0A13F00F0F01D104301B0913F0030F01D102309B0889
:406E800013F0010F02D15B0804D001301360704700207047202070475B0801201360704703460A69006910B4801A11D1043203F1140C92009B1889180431043353F8044C42
:406EC000043B51F8042C0439944203D19C45F5D310BC704738BF4FF0FF30F9D30120F7E740F20003C7F6F07301EA0303A3F15073002B02DD1946002070475B421B15132BAF
:406F00000EDD143B1E2B03DD01230021184670470122C3F11F03002112FA03F3184670474FF40022002052FA03F170472DE9F041046900F114060F46043450F8245000EBF4
:406F40008404A0462846FFF759FF0A28C0F120033B6014DCA642C0F10B0337D254F8041CD94025FA03FC15304CF07E53854043F4E00341EA050210461946BDE8F081A642ED
:406F800020D300210B3802BF45F07E530A4643F4E003F0D0B442C0F1200319D954F8044CDC40854021FA03FC45F07E5511FA00F045F4E00544EA000245EA0C0310461946F2
:406FC000BDE8F08154F8041C043CDBE70021C8E70024E6E72DE9F04383B00E4601A90746FFF7A4FF0D46044669463046FFF79EFFDDF804C0A946A0460B460246316916469A
:4070000038691F46401A0099C1EB0C0101EB40110029C9BF05EB0159A3EB015724464D46DCBF12463B4620462946FCF789F903B0BDE8F083172810B504460EDD40F200018E
:407040000020C3F6F07140F200030022C4F22403FCF74CF8013CF6D110BD48F69013C0F2000303EBC003D3E9000110BD1369013902F1140C10B402EB83024C1114320134F2
:40708000944500EB84040FD200235CF80310C150043303EB0C018A42F7D86FEA0C0C624422F0030204328018844204D9002340F8043B8442FBD810BC704700BF02694B1160
:4070C0009A4210DB0EDD11F01F010BD01A4600EB83035B6923FA01FC0CFA01F1994202D0012070471A46043200F1140100EB820303F1040C61450BD250F82220002AEFD1AF
:40710000994205D253F8042D002AE9D19942F9D30020704730B5456A83B0044655B139B1636A4A68DB6853F82200086043F8221003B030BD10200191FFF7ECFA0199606220
:40714000C560456085600560E9E700BF70B5446A06460D4664B1E268A2B152F82530EBB1196842F825100022DA601A61184670BD1020FFF7CFFA002304467062C3604360C7
:407180008360036010223046042100F00FFE736AE060DA68002AE0D11346E7E7012430462146AC40621D920000F000FE03460028DCD045608460D6E72DE9F04583B001216E
:4071C0001D4614460A9F0B9EFFF7C0FF25F0004225F07F4323F4700315465FEA125A00931CBF43F4801300938046002C23D002A840F8044DFFF722FE0346002837D10199F7
:40720000009AC8F81410002A14BF02240124C8F81820C8F81040BAF1000F1BD0AAF5866AC3F13502AAF1030A53443B603260404603B0BDE8F0856846FFF700FE01231C467A
